:100000000C948C020C94C4020C94C4020C94C40290
:100010000C94C4020C94C4020C94C4020C94C40248
:100020000C94C4020C94C4020C94C4020C94B43218
:100030000C9464330C94432D0C94C4020C94C402AD
:100040000C94C4020C94C4020C94C4020C94DD2DD4
:100050000C94C4020C94C4020C94C4020C94C40208
:100060000C94C4020C94C4020C94C4020C94C402F8
:100070000C94C4020000000000000000000000001A
:100080000000000000000000000000000000000070
:100090000000000000000000000000000000000060
:1000A0000000000000000000000000000000000050
:1000B0000000000000000000000000000000000040
:1000C0000000000000000000000000000000000030
:1000D0000000000000000000000000000000000020
:1000E0000000000000000000000000000000000010
:1000F0000000000000000000000000000000000000
:1001000000000000000000000000000000000000EF
:1001100000002A2B28000000000000000000000062
:10012000000000000029000000002C1E34202122C5
:1001300024342627252E362D3738271E1F2021222E
:10014000232425263333362E37381F0405060708A7
:10015000090A0B0C0D0E0F10111213141516171897
:10016000191A1B1C1D2F3130232D350405060708D5
:10017000090A0B0C0D0E0F10111213141516171877
:10018000191A1B1C1D2F3130354C000000000000D7
:10019000000000000000000000000000000000005F
:1001A00000000000000000000000000000007E0FC2
:1001B00000D4FFFFFFC700000078FD377A585A00CF
:1001C0000004E6D6B4460200210116000000742F98
:1001D000E5A3E002CC010C5D003D8889C65436C31E
:1001E000174FE4DB9DBEBF4BB698EC6818CA0EE112
:1001F000662E1BBA149A2414AE6DA6B3FBF1F9EA6D
:100200007E0B10CFF331C7C622EFE0FEEE0D9D73DB
:1002100039FF810A3FFE23B006DA459DAE2A42A887
:100220006F4114651BC3511DBA63D2F078C15B42A4
:10023000CAA33C39F547E70458EA15A0A7363C386D
:100240004114F442C06EB890384D73C0C3CD92BB18
:10025000D9E9DB7441842EBD0D90CCAC82656CF085
:10026000E5343D06E25AAE52A20A48A75DA122E952
:1002700038EFB0395063235CB3E0453A051008C944
:100280008AC17A8CF216E252E9F50C9AB1FFF2B506
:10029000942C4B68662EC8395C7EAF78829C4D7D6D
:1002A0000749C0016AB6A6C22055B9C65BE1659E82
:1002B0004E1F298EFCAC8A87A12B6DD7F1134CF50C
:1002C000844D338A8B1E7C969185C2A3D3D0FD27A3
:1002D00013B995434A59B78A28486A7F73265A4DFD
:1002E00085FA5E0E0000AA141E5DD4FB2280000178
:1002F000A802CD0500000EE036CEB1C467FB0200B7
:1003000000000004595A01000100340400000200FA
:100310000200300400000300010035040000040066
:1003200002001A0405210500010036040000060041
:1003300002001C0400000700020032040000080054
:10034000010037040000090002001E04E0200A003A
:1003500002002004E0200B0002002204E0200C0038
:1003600002002404E0200D0002002604E0200E001C
:1003700002002804E0200F0002002A04E020100000
:1003800002002C04E020110002002E04E0201200E4
:10039000020038040000130002003A0400001C03AD
:1003A0007600690061006C003A0066003600340097
:1003B0006300320062003300630000001403410058
:1003C0006C006E006900740061006B00360035003F
:1003D0000000220353006300610074007400650094
:1003E00072006500640044007200690066007400D9
:1003F0006500720000000403090409025B000301A8
:1004000000A0FA0904000001030101000921110103
:1004100000012240000705810308000109040100D2
:10042000020300000009211101000122220007053A
:1004300082032000010705030320000109040200D4
:100440000103000000092111010001224F000705EE
:100450008403200001120100020000000811331182
:100460002B0100010203010660FF0961A10109627D
:10047000150026FF009520750881020963150026E6
:10048000FF00952075089102C005010902A10185B0
:10049000020901A100050919012905150025019589
:1004A0000575018102950175038101050109300976
:1004B000311581257F95027508810609381581253A
:1004C0007F950175088106050C0A38021581257F84
:1004D000950175088106C0C005010906A10105073F
:1004E00019E029E71500250195087501810295019C
:1004F000750881010507190029FF150026FF0095E1
:1005000006750881000508190129059505750191F1
:1005100002950175039101C011241FBECFEFD4E0F5
:10052000DEBFCDBF04B603FE18C080914D0490918C
:100530004E04A0914F04B09150048730904BA740D7
:10054000B04B59F410924D0410924E0410924F0487
:1005500010925004E0E0F8E3099511E0A0E0B1E06A
:10056000E8E9FCE602C005900D92A035B107D9F785
:1005700024E0A0E5B1E001C01D92AD34B207E1F77F
:100580000E94ED140C94E8350C9400009C019A959F
:1005900081159F4118F5F901EE27F270832F8170C4
:1005A000B90166277470A9014427587034FF0CC044
:1005B0008295807FEF2B09F08062672B09F08064C1
:1005C000452B69F080680895EF2B09F08260672B56
:1005D00009F08460452B19F08860089580E0089543
:1005E000CF93DF93EB010E94C602FE01DF91CF9112
:1005F0000994CF93DF93EC01805E9109089720F076
:1006000068E476E0209711F46AE376E0CE010E9478
:10061000F0028C2FDF91CF910C94B505CF93DF932F
:10062000EC010E94E805CE01805E9109089720F058
:100630006FE476E0209711F461E476E0CE01DF917B
:10064000CF910C94F00281E0089581E008950C941C
:10065000250308950C9429031F93CF93DF9300D0B3
:1006600000D00F92CDB7DEB749835A836B833091A8
:10067000530189819A8131111DC06623B9F022236B
:10068000A9F00E944D0A182F682F89819A810E9433
:10069000E90969817A81812F0F900F900F900F9057
:1006A0000F90DF91CF911F910C94D11F0E941D0AD2
:1006B000182FEFCF0E944D0A69817A81EDCFFC019E
:1006C000262F86819781009739F44081518162817C
:1006D000738184810C942C030895CF93DF93D82FDA
:1006E000C92F61E00E945F036D2F7C2FDF91CF91B6
:1006F0000C94DF27CF93DF93D82FC92F60E00E949F
:100700005F036D2F7C2FDF91CF910C942A03E1E0E2
:10071000F0E0DF0102C0AA0FBB1F6A95E2F7BD013E
:10072000DF0102C0AA0FBB1F4A95E2F76A2B01C086
:10073000EE0F2A95EAF7962F9823961302C08E2B78
:100740000895E0958E230895242F462F682F8091D9
:1007500074010E9487030C94A6090C9474130C94E2
:10076000771308950E9462060E94B1032FEF84E37D
:100770009CE0215080409040E1F700C000000C94C4
:10078000012E0F931F93CF93DF93EC018B010E94F7
:100790002C2BB801CE010E94FD17882309F44FC00D
:1007A000B801CE010E94741D882309F448C0B80125
:1007B000CE010E942703882309F441C0B801CE016D
:1007C0000E94732B8823D9F1B801CE010E94DA244C
:1007D0008823A9F1B801CE010E947A2A882379F1F1
:1007E000B801CE010E947322882349F1B801CE01DD
:1007F0000E94AB29882319F1F8018281882361F0D6
:10080000CA35FDE5DF0721F170F4C115ECE5DE071F
:10081000A1F0CE3DDC45C9F0C801DF91CF911F9119
:100820000F910C942303CB358DE5D807A1F0CC357F
:10083000DD4591F70E94DC0FEFCF0E94B20380E00C
:10084000DF91CF911F910F9108950E949510F7CFDE
:100850000E94E50FE1CF0E94E80FDECFCF93DF9338
:10086000D82FC92F61E00E945F036D2F7C2FDF918D
:10087000CF910C94C1030E94272D0C9420050E9457
:1008800023050C942B2DDF92EF92FF920F931F9371
:10089000CF93DF93E82FF0E0E65FFE4FD490282F50
:1008A00026952695269530E0F901E655FE4F0491F0
:1008B000877010E0082E02C0159507950A94E2F79C
:1008C00001701127F901E656FE4FE490F12C082E35
:1008D00002C0F594E7940A94E2F791E0E922FF243C
:1008E000F901E657FE4FC491D0E002C0D595C795F7
:1008F0008A95E2F7C170DD270115110519F081EE27
:100900000E94B505E114F10419F086EE0E94B505C8
:100910008D2D0E942E06EF2819F086EE0E94E80524
:10092000012B19F081EE0E94E805CD2B51F08CE2ED
:10093000DF91CF911F910F91FF90EF90DF900C947A
:100940002E06DF91CF911F910F91FF90EF90DF90D6
:100950000895EF92FF921F93CF93DF93EC01162F30
:100960008881882309F453C0813009F04DC0898102
:100970008130A1F47E0182E0E80EF11C8A810E94A0
:100980002E06E7012196812F882351F3EFE9FFE03E
:100990003197F1F700C000008150F6CF823041F46A
:1009A0007E01E2E0EE0EF11C8A810E94B505E9CFDE
:1009B000833041F47E01F2E0EF0EF11C8A810E9447
:1009C000E805DFCF843011F02196DCCF2A81229612
:1009D00080E090E0FE0131962053330B2A30310540
:1009E00050F0009779F2EFE9FFE03197F1F700C09E
:1009F00000000197F6CF6AE070E00E942235820F76
:100A0000931F2981EF01E6CF0E944304BBCFDF9102
:100A1000CF911F91FF90EF90089560E00C94A9048E
:100A200008950C94100581E008950C941305089521
:100A3000CF93C82F0E9411058C2FCF910C941505D0
:100A400080E00C9418050E94652C0C9418050E94F7
:100A5000652C90915201981721F0809352010C94CB
:100A6000180508959C012115310509F408958FE9B1
:100A70009FE00197F1F700C0000021503109F3CF4A
:100A80000F931F93CF93DF93CDB7DEB72D970FB69C
:100A9000F894DEBF0FBECDBF49875A87262F6B87DC
:100AA0007C878D878C859D85892B29F0852F8423D4
:100AB0008F3F09F04BC021110E94ED0E1E821F8254
:100AC000188625E0FE013996CE010196DC010190E1
:100AD0000D922A95E1F72091B3038C0122FD12C0FB
:100AE00080911C0490911D04892B61F00E94A70E37
:100AF000882319F082E00E94AB0F0E94820E8111C0
:100B00000E94240F89819A812C813D81232BA9F495
:100B100029813A814B815C816D817E818F819885AD
:100B20000E94C70D2D960FB6F894DEBF0FBECDBF45
:100B3000DF91CF911F910F91089589238F3F41F34A
:100B4000C8010E946D038111E3CFECCF8091540165
:100B50009091550101969093550180935401ABCF2C
:100B6000FC01808191810C947A0ACF93C82F88234D
:100B700069F18CEF8C0F813AA0F46C2F8091000109
:100B8000909101010E94C92C882329F08C2F0E948A
:100B9000720E0E94320F8C2F0E946B0ECF910C941C
:100BA000320F80E28C0F883048F4C77081E001C0BA
:100BB000880FCA95EAF70E94CB0EF0CFC03F30F005
:100BC0008C2F0E948315CF910C944A16CF910895D3
:100BD000882361F19CEF980F913A20F40E94720EE5
:100BE0000C94320F90E2980F983050F4877091E097
:100BF00001C0990F8A95EAF7892F0E94D10EF0CF94
:100C00009BE5980F933020F490E080E00C948B2CBF
:100C100098E5980F973120F490E080E00C94A12C97
:100C2000803F20F00E94D5150C944A1608951F931A
:100C3000CF93DF93182FEB010E94B505209731F475
:100C4000812FDF91CF911F910C94E8058FE99FE0F0
:100C50000197F1F700C000002197F0CF60913A04AE
:100C600070913B04893321F060913804709139040C
:100C70000C941706882321F00E94CB0E0C94320F9F
:100C80000895882321F00E94D10E0C94320F08950C
:100C9000882321F00E94DF0E0C94320F08958823E0
:100CA00021F00E94E50E0C94320F08950E94ED0E83
:100CB0000E94320F0E947F170C944A160E94790EF0
:100CC0000C9456060E94D90E0C945E06282F92951D
:100CD0009F70963091F060F4925F9F70923030F484
:100CE00081E0203F81F030F4283E30F080E008952C
:100CF0009A5FF3CF243FD1F7089581E0283EE0F3D7
:100D0000213FA1F7F9CF0895FC01868197810097D3
:100D100021F00E947C110C946606808191810E94D2
:100D20007A0AF9CFBF92CF92DF92EF92FF920F93A0
:100D30001F93CF93DF937C01C62F172FFC01D28026
:100D4000058102950F700E94C10EC82E8823C1F044
:100D5000CD2CDD20A9F0812F807F803429F080E226
:100D60008C0F883008F447C08091B30382FD43C0E4
:100D700082E00E94AB0F0E94C10E91E0C82EC926EE
:100D8000B12EB2948FE0B822F8E0BF1609F426C164
:100D9000FB1508F467C023E02B1578F1812F807FC5
:100DA000D12FDF7031E03B1508F06FC0803211F0B9
:100DB000D295D07FCC2309F497C0C13009F4E7C0A5
:100DC000DD2009F4EEC0002309F4C3C020E0F701E0
:100DD000408151816281738184810E942C03B7011B
:100DE0000E942622811164C0F701858180FF60C0C6
:100DF0008F708583AEC0C12CC3CF85E0B81609F4CF
:100E0000E2C02B2D2850330B2430310520F40E94F2
:100E1000652C0E9418058C2F912F0E946606811167
:100E2000DFC11092550110925401CC2009F4F9C190
:100E30000E94A30E80FDF5C1F70112820E949D0E53
:100E40000E94B709C7010E9439090E949D0EDF91D7
:100E5000CF911F910F91FF90EF90DF90CF90BF90B7
:100E60000C94C20999E0B91609F424C186E08B0DEF
:100E70008F70823030F6C23F09F02CC1812F8F7104
:100E8000D11025C10E94B709BCCF882311F0D2959B
:100E9000D07FDD2099F0DD2359F080E28C0F88307F
:100EA00010F0C11107C08D2F0E94CB0E0E94320F8F
:100EB0008C2F28C08D2F0E94DF0EF8CF8C2F0E9420
:100EC000E805DD2309F49DCF80E28C0F883010F017
:100ED000C11104C08D2F0E94D10E03C08D2F0E941E
:100EE000E50E0E94320F8DCF8091B30382FF14C0B4
:100EF000DD2059F0DD2329F08D2F0E94CB0E0E94BA
:100F0000320F80E00E94B5057CCF80E00E94E805AA
:100F1000DD2309F476CFDECFDD20E9F0011106C034
:100F20000E94F00E8D2B0E943A066BCF013031F4F7
:100F30000E94F00E8D2B0E940C0F63CF809136041F
:100F4000823070F38013ECCF0E94240F8D2F0E940B
:100F5000F60E8D2FE8CF011106C00E94240F8D2FB1
:100F60000E9441064ECF80913604013059F4823000
:100F700008F447CF0E94C80E8D2309F442CF0E9487
:100F8000FF0EEBCF823048F30813E7CF3ACFDD20D6
:100F900021F0063008F035CFDCCF053008F031CF36
:100FA000DECF0023E1F280913A0490913B04C933F3
:100FB00021F080913804909139040E9432058C2FE1
:100FC0000E94E8051ECF8C2FDD2029F00E9483159A
:100FD0000E944A1616CF0E94D515FACF812F837032
:100FE00091F5D1100ECF9C2F929596959770990FF1
:100FF000990F4C2F4F70092E01C0440F0A94EAF745
:101000008C2F8071C4FF08C02FE030E001C0220F98
:101010009A95EAF7822F8095912F969596959370E1
:10102000842B923051F0933059F0913019F00E9496
:101030009809E7CE0E949309E4CE0E949D09E1CE73
:101040000E949109DECEDD2049F110FFDACE9C2FFF
:10105000929596959770990F990F4C2F4F70092E76
:1010600001C0440F0A94EAF78C2F8071C4FF08C0B6
:101070002FE030E001C0220F9A95EAF7822F809589
:10108000912F969596959370842B923069F09330BA
:1010900071F0913031F00E94DE09B3CE11FFB1CE74
:1010A000D6CF0E94D909ADCE0E94E309AACE0E94F4
:1010B000A609A7CED12FDF70DD2029F08D2F0E9449
:1010C000B7098C2F30CF8C2F0E9441068D2F0E94A4
:1010D000C20997CEC33F60F4C03FB9F0C13F81F071
:1010E000DD2009F478C00111E3CE812F8F71CACEC3
:1010F000C33FC9F0C43FA1F78091B30382FF1DC075
:10110000812F8F71DD2019F3BDCEDD2041F0053038
:1011100008F077CE812F8F710E94CE0972CE0630F3
:1011200008F06FCEF7CFDD2029F0812F8F710E945C
:10113000AF0967CE0E94AC0964CE8091360482303C
:10114000A0F1DD20F1F00E947F0E0E94D10E0E94DE
:10115000A30E843041F40E94A20F812F8F710E9450
:10116000C209C12C4ECE809136040817D0F7D12F7A
:10117000DF718D2F0E94B70963E08D2F0E94850FCC
:10118000F0CF0E947F0E0E94CB0E8091360408178C
:1011900040F00E94A20F0E94FF0E64E0812F8F7129
:1011A000EDCF81E00E94AB0FDCCFDD2051F0D12FDD
:1011B000DF718D2F0E94B70963E08D2F0E94850F8C
:1011C00020CE81E00E94AB0F023008F41ACE82E0FC
:1011D0000E94AB0F16CE0111E6CE812F8F7177CF13
:1011E000DD2019F001111DCE20CE01111ACE20E014
:1011F000F701408151816281738184810E942C03B7
:10120000B7010E943122882309F40BCE809154014A
:1012100090915501029709F004CE8C2F0E942E0662
:1012200000CEDF91CF911F910F91FF90EF90DF9053
:10123000CF90BF9008950F931F93CF93DF93EC014E
:101240008E819F81009779F00E947C118C010E9411
:10125000E8090E949009B801CE01DF91CF911F915A
:101260000F910C949206688179818A810E94860A86
:10127000EDCFCF93DF93EC01988189812B813C8165
:10128000232B19F089238F3F59F4DF91CF910895D3
:10129000CE010E941B09CE01DF91CF910C947A03FD
:1012A000CE010E942E048111F3CF0E94C10E88232B
:1012B00061F38A81882349F38091B30382FDE5CFEE
:1012C00082E0DF91CF910C94AB0FCF93DF9300D0EE
:1012D00000D00F92CDB7DEB70F900F900F900F9008
:1012E0000F90DF91CF910895CF93DF93CDB7DEB705
:1012F00028970FB6F894DEBF0FBECDBF28960FB665
:10130000F894DEBF0FBECDBFDF91CF910895089551
:101310000C9487090E948809809375010C945606E5
:1013200008950C948A0990917501892B0C948A096F
:101330009091750189230C948A09909175018927F0
:101340000C948A090C9487090C94A2090E94A409A0
:10135000809374010C94560680E00C94A60991E0E9
:1013600001C0990F8A95EAF7892F0C94A60921E00C
:1013700030E001C0220F8A95EAF780917401822B38
:101380000C94A60921E030E001C0220F8A95EAF70B
:1013900020958091740182230C94A60921E030E00D
:1013A00001C0220F8A95EAF78091740182270C947C
:1013B000A60990917401892B0C94A609909174014F
:1013C00089230C94A6099091740189270C94A6098D
:1013D0000895382F892F262F9E3F71F16FE00E94CC
:1013E0001935830F982F977041E001C0440F9A95EB
:1013F000EAF786958695869590E063E070E00E9416
:101400002235FC01EA5AFE4F90E080E0622F70E046
:101410005191DF0111979B01082E02C03695279547
:101420000A94E2F7217021952527242325272C9360
:1014300001968330910561F70895282F892F9E3FEB
:1014400051F16FE00E941935820FA82FA770869581
:101450008695869590E063E070E00E942235FC015D
:10146000EA5AFE4F50E040E080E0219130E00A2E41
:1014700002C0369527950A94E2F721703327042E8F
:1014800001C0220F0A94EAF7822B4F5F5F4F43306F
:10149000510559F7089580E00895DF92EF92FF9289
:1014A0000F931F93CF93DF937C0100917401809180
:1014B0007501082BC7E0D0E010E0DC2EC8010C2E2F
:1014C00002C0959587950A94E2F780FD0CC021979C
:1014D000A0F7D12C8D2DDF91CF911F910F91FF900F
:1014E000EF90DF900895B7018C2F0E946012019752
:1014F00071F3F0CFCF93DF93D82FC92F0E944D0AFD
:101500006D2F7C2FDF91CF910C9460121F93CF939E
:10151000DF93162FD72F90915301992339F0862FFF
:10152000972FDF91CF911F910C947A0A882391F025
:10153000862F972F0E944D0AC82F682F812F9D2F2D
:101540000E94E909612F7D2F8C2FDF91CF911F9190
:101550000C946012862F972F0E941D0AC82FF2CF7D
:10156000CF93DF93C0917601809177018C1303C0F4
:10157000DF91CF910895D0E0FE0183E0EE0FFF1FD1
:101580008A95E1F7E858FE4F2081318142815381ED
:1015900064817581868197810E9474092196C77044
:1015A000E3CF2091B8013091B9014091BA01509137
:1015B000BB016091BC017091BD018091BE01909111
:1015C000BF010C947409EF92FF920F931F93CF9376
:1015D000DF938091BD01807F31F48091BA01C09189
:1015E0007601811119C0DF91CF911F910F91FF906A
:1015F000EF9008958091B8019091B9012091BB01BD
:101600003091BC01D0E02115310521F0492F48234C
:101610004F3F39F42196C770809177018C13EACF40
:10162000E2CF8E0143E0000F111F4A95E1F7F80168
:10163000E858FE4F41819413EDCF90819813EACF83
:1016400082818111E7CFE380F480E21AF30A60E03F
:1016500088EB91E00E945F0368EB71E00E941D221D
:10166000E816F906B8F68091BD018F70806180930D
:10167000BD01F801E358FE4F80818F708061808347
:1016800088EB91E00E943909DF91CF911F910F9172
:10169000FF90EF900C94B00A4F925F926F927F92FE
:1016A0008F929F92AF92BF92CF92DF92EF92FF9272
:1016B0000F931F93CF93DF93CDB7DEB72D970FB660
:1016C000F894DEBF0FBECDBF8C0185E0F801DE01CE
:1016D000199601900D928A95E1F7D8017C901196A8
:1016E0006C9011971296EC9012971396CD90DC9017
:1016F00060E088EB91E00E945F03582E492E58EB82
:10170000A52E51E0B52E9091B8018091B90120919C
:10171000BB013091BC012115310521F089238F3F98
:1017200009F0D8C1EE2009F4A7C0C8010E948406C0
:10173000F82E882309F4A0C088E0F801A8EBB1E0F6
:1017400001900D928A95E1F788EB91E00E94B00537
:101750000E94E30A8BC168EB71E0852D942D0E94F5
:1017600022228111EDC1CD2829F0872D86218F3FBE
:1017700009F00FC180E0E82FE170DE2E80FF3DC050
:101780008091760120917701821316C089859A8510
:101790000E947A0A292F22952F70903210F1225F31
:1017A0002F70223028F59F7001F1D80115969C9179
:1017B000907FD9F4D12C1FC090E0FC0133E0EE0FF4
:1017C000FF1F3A95E1F7E858FE4F3181361106C008
:1017D0003081371103C032813E110FC001968770EE
:1017E000D3CF9F7011F0882329F3805E883010F3E7
:1017F000C8010E943909FD2C00C1EE2009F4FDC08A
:101800008091BD0181608093BD01F12CF6C0452B14
:1018100029F0382F32233F3F09F007C1C8010E9449
:101820008406882349F1EE2039F18091BD01803290
:10183000A0F02091B8013091B9013A8329831B822D
:10184000DD82CC828E838091BE019091BF0198870A
:101850008F83CE0101960E94390988E0F801A8EB38
:10186000B1E001900D928A95E1F70E94E30A0E948F
:10187000D10AFF24F394C1C0C8010E943909F9CFED
:10188000892F807F99F449855A856B857C858D8564
:101890000E94650988EB91E00E94390988E0D50132
:1018A0001D928A95E9F70E94D10AAFCF8091B801C5
:1018B0002091B9014091BB015091BC01452B09F425
:1018C000ADCF382F32233F3F09F4A8CFF801318143
:1018D0003213A4CFF80120812813A0CF4091BE017C
:1018E0005091BF01268137814217530709F096CFE7
:1018F000E11094CF9583C8010E943909E8EBF1E02B
:1019000088E0DF011D928A95E9F777C060E088EBF7
:1019100091E00E945F0368EB71E00E941D2288162F
:10192000990650F5FE2CEE2009F4A6CF8091B8015F
:101930009091B9012091BB013091BC01232B29F07A
:10194000282F29232F3F09F094C0C8010E94840644
:10195000811183CF8091BD0181608093BD01C80159
:101960000E9439094AC088E0F801A8EBB1E0019073
:101970000D928A95E1F741C049855A856B857C8532
:101980008D850E94650988E0F50111928A95E9F735
:101990006DC081E08E25EFCE88EB91E00E94390981
:1019A00088E0E8EBF1E0DF017BCF81E08E25D1C05C
:1019B000F80191819213BAC0F80190819813B6C0D2
:1019C0002091BE013091BF01868197812817390788
:1019D00009F0ACC0E110AAC08091BD018F70806198
:1019E0008093BD010E94D10A88EB91E00E943909E1
:1019F0008091BD01D80115968C938F2D2D960FB631
:101A0000F894DEBF0FBECDBFDF91CF911F910F9134
:101A1000FF90EF90DF90CF90BF90AF909F908F900E
:101A20007F906F905F904F900895D80111963C91F0
:101A30003213F4CEF80120812813F0CE4091BE017C
:101A40005091BF01268137814217530709F0E6CE36
:101A5000E110E4CE9583C8010E94390988E0F801BD
:101A6000A8EBB1E001900D928A95E1F70E94D10AAE
:101A7000C4CFD80111962C91291367CFF80190811A
:101A8000981363CF2091BE013091BF018681978169
:101A90002817390709F059CF68EB71E0852D942D8F
:101AA0000E942B2281115FCF8091BD0180FD5BCF11
:101AB000982F907F09F457CFD80115968C931597DE
:101AC000903F49F2982F907F905F8F70892B1596E9
:101AD0008C93C1CFF090BA014601821A930AFF207D
:101AE00009F414CF60E088EB91E00E945F0368EB9B
:101AF00071E00E941D229C019091BD018216930607
:101B000008F0BECE8091B8012091B9014091BB018F
:101B10005091BC01392F307F09F079CEFE2C452B36
:101B200029F0982F92239F3F09F042CF68EB71E094
:101B3000852D942D0E941D22843F914008F40BCEE8
:101B4000C114D10429F0872D86218F3F09F02DCFB4
:101B500080E080FF08CE8091760120917701821786
:101B600009F401CE90E0FC0143E0EE0FFF1F4A951F
:101B7000E1F7E858FE4F3181361106C03081371148
:101B800003C032813E1108CF01968770E8CFCF9312
:101B9000DF93CDB7DEB760970FB6F894DEBF0FBE08
:101BA000CDBF29873A874B875C876D877E878F8774
:101BB000988BCE0109960E944C0B8823D1F08C851E
:101BC0009D85892B39F03A852985832F82238F3F84
:101BD00009F078C08091760190917701891348C00F
:101BE00060960FB6F894DEBF0FBECDBFDF91CF91E8
:101BF000089588E0FE013996DE01119601900D925C
:101C00008A95E1F789859A85A091770120917601DF
:101C10004C855D85452BF1F289238F3FD9F2B0E0E9
:101C2000CD010196877099272817190671F40E9433
:101C30006206109277011092760188E0E8EBF1E0FD
:101C4000DF011D928A95E9F7C5CF33E0AA0FBB1FCC
:101C50003A95E1F7A858BE4F98E0FE013196019001
:101C60000D929A95E1F7809377010E94B00AB2CF66
:101C700090E023E0880F991F2A95E1F788589E4F3E
:101C80000E944C0B882309F4ABCFE0917601F0E081
:101C900083E0EE0FFF1F8A95E1F7E858FE4F2081A1
:101CA00031814281538164817581868197810E944F
:101CB00074098091760190E001968770992780934E
:101CC000760188CF4B855C856D857E858F8598896B
:101CD0000E9474097FCF682F8091000190910101CB
:101CE0000C94032D682F80910001909101010C94B8
:101CF000052D80910001909101010C94072D809198
:101D0000CD01089580911C0490911D04892B91F0C0
:101D10000E94A22D2091CB013091CC01AC01421B3D
:101D2000530B9A0181E040911C0450911D0424172B
:101D3000350708F480E0817008958091CA01859587
:101D40008595859508958091CA01877008950E94B0
:101D5000A22D2091C8013091C901821B930B2091C3
:101D60001C0430911D048217930748F08091CA012A
:101D700082FB882780F991E089278170089580E0AF
:101D8000FCCF9091CA01977081E009F480E008953A
:101D90008091D80108959091D801982B9093D80103
:101DA0000895982F90958091D80189238093D80128
:101DB00008951092D80108958091D70108959091C7
:101DC000D701982B9093D7010895982F90958091E3
:101DD000D70189238093D70108951092D7010895E0
:101DE0008091CE01089508950C94F30E9091CD0149
:101DF000981721F08093CD010C94F40E08958091F2
:101E0000CD01882329F01092CD0180E00C94F40ECE
:101E1000089508950C94090FCF93C82F8091B303B0
:101E200082FD10C08091CE018C1761F00E94A22D1E
:101E30009093CC018093CB01C093CE018C2FCF9196
:101E40000C940A0FCF9108958091CE01882349F018
:101E50001092CE011092CC011092CB0180E00C9434
:101E60000A0F0895CF93DF93E0910001F0910101F3
:101E70008091D8018083E0910001F091010180817F
:101E80009091D701892B80838091CE018823E9F03E
:101E900080911C0490911D04892B29F00E94820ED0
:101EA00081110E94240FE0910001F09101018081D5
:101EB0009091CE01892B8083809100019091010146
:101EC0000E94B72C81110E94240FC0910001D09173
:101ED000010148E050E060EC71E0CE010E947135F4
:101EE000892B69F088E0FE01A0ECB1E001900D9231
:101EF0008A95E1F7CE01DF91CF910C94712CDF919F
:101F0000CF91089508950C94820F962F2091B303DA
:101F100022FD16C0682F660F660F660F692B60934F
:101F2000CA010E94B7090E94A22D9093C901809313
:101F3000C8018091CA018595859585950C94830F7C
:101F40000C94B7091092CA011092C9011092C801ED
:101F500080E00C94830F9091CA018095892380932F
:101F6000CA01282F277091F4282F082E000C330B5C
:101F70009217130659F09091B30392FD07C085950F
:101F8000859585950E94C2090C94A20F08959091A1
:101F9000B30392FB222720F9281769F080FB92F9FE
:101FA0009093B3038091B2039091B3030E941210F7
:101FB00082E00C94AB0F08958091B30382FB8827D5
:101FC00080F991E089270C94C70F81E00C94C70F2A
:101FD00080E00C94C70F6FEF7FEF90E080E00C94EF
:101FE000CA3590E080E00E94A635893E9E4F11F4EC
:101FF0000C948D1780E0089582E090E00C949E355B
:1020000083E090E00C949E35CF9384E090E00E94B2
:102010009E35C82F82E290E00E949E35982F8C2F2B
:10202000CF910895CF93682FC92F84E090E00E944C
:10203000AC356C2F82E290E0CF910C94AC35AB01C3
:10204000BC018FE090E00C94BE35AB01BC0183E194
:1020500090E00C94BE3560E070E0CB010C9425104C
:1020600060E070E0CB010E941F100C942B1069EE11
:102070007EEF90E080E00E94CA3560E082E090E070
:102080000E94AC3560E083E090E00E94AC35109295
:10209000750160E084E090E00E94AC3560E082E28F
:1020A00090E00E94AC3560E085E090E00E94AC35A5
:1020B00060E086E090E00E94AC356FEF87E090E052
:1020C0000E94AC3540E050E0BA0188E090E00E9408
:1020D000BE3560E08DE090E00E94AC3540E050E01D
:1020E000BA0188E190E00E94BE3560E087E190E0AF
:1020F0000E94AC3540E050E0BA018CE190E00E94D3
:10210000BE3570E060E080E290E00E94CA3540E0B9
:1021100050E0BA0188E190E00E94BE3580E00E9464
:10212000A6170E94E1170C9430100C943710682FFA
:102130008EE090E00C94AC350E94AE2D6093E701E8
:102140007093E8018093E9019093EA016093E301C1
:102150007093E4018093E5019093E601089508955A
:1021600008950C94B01008950C94B3108FE393E18C
:102170000E945B2C0E94B71B0E9427210E94AF1077
:102180000C94B11081E008950C94C2100895089544
:102190000E94C6100C94C7100E9459130C94170586
:1021A0000E94992D0E94F0170E9444140E94CC10A6
:1021B0000C94B4107F928F929F92AF92BF92CF9265
:1021C000DF92EF92FF920F931F93CF93DF9300D094
:1021D00000D00F92CDB7DEB70E945914B82E8111EE
:1021E0000E949C1059ED852E51E0952E10E000E0E4
:1021F000702E802F0E948F137C01F401C190D1902A
:102200004F01C816D90609F452C08091EB0181FD37
:102210000E949813C6018E259F25A12CCC24C3941F
:10222000D12C9C012C213D21232BD9F10E94C410DB
:102230008823A9F0A9827A82EC20FD2081E0EF2892
:1022400009F480E08B830E94A22D8160782F9D830A
:102250008C8349815A816B81892F0E944005000F30
:10226000111FF801E752FE4F808191818C259D2539
:102270009183808381E0B11001C080E00F900F90C6
:102280000F900F900F90DF91CF911F910F91FF90C2
:10229000EF90DF90CF90BF90AF909F908F907F9006
:1022A0000895A394CC0CDD1CFFE0AF12BACF0F5FF2
:1022B0001F4F0530110509F09BCF8FEF89838A836B
:1022C0001B820E94A22D8160782F9D838C8349817F
:1022D0005A816B81892F0E944005CCCF0E94D82B58
:1022E0000E949B270C94A1240E94DA100E946E1178
:1022F0000E9464160C942705CF93DF930E9464120A
:10230000EC018115924508F054C0C11581E5D8074C
:1023100008F0A7C0CF3FD10509F0E8F4C03FD105D0
:1023200008F09AC0C53AD10570F4C430D10538F42C
:1023300081E0219709F080E0C82F90E0D92FCE01ED
:10234000DF91CF910895CE01805E91090897B8F38F
:10235000D0E0C0E0F4CFC11520E5D20758F4C11594
:1023600080E4D80708F07AC0CE019A9581159F4184
:1023700030F3EECF9E01A4E036952795AA95E1F7BC
:1023800023708C2F86958695837090E0B5E0880F3A
:10239000991FBA95E1F7922BC37021E030E002C09B
:1023A000220F331FCA95E2F7822B932BEC01DC68D6
:1023B000C6CFC11586E5D80740F5C11595E5D90703
:1023C00008F065C0C11524E5D207D0F48C2F86959E
:1023D00086959E0123703327C115D34508F046C06A
:1023E000C1E0D0E002C0CC0FDD1F2A95E2F790E0FB
:1023F000F5E0880F991FFA95E1F7C82BD92BD7CFB5
:10240000DC2FCC27C46FD06A9ACFC1152AE5D2073A
:1024100088F4C11589E5D80708F044C0CE01985565
:102420008F3F910511F008F093CFDC2FCC27C06FC0
:10243000D06A85CFCE0190568115904208F088CFA2
:102440008D2F8F710E94FC1290E0982F882788278B
:102450009F718C2BEC0124C0D06571CFDF70D06AE6
:102460006ECFDC2FCC27C16FD06A69CFC1E0D0E03E
:1024700002C0CC0FDD1F2A95E2F790E065E0880FDF
:10248000991F6A95E1F7C82BD92BDA6858CF8C2FA2
:102490000E94FC12C82FD0E0DC2FCC27CC27DF71A4
:1024A000D0624DCF8C2F8F700E94FC1234E0D695F5
:1024B000C7953A95E1F7CF709C2FEC01D0693FCFDB
:1024C0000E94D11F0C947C11803E910599F1C8F4B3
:1024D0008133910509F476C048F48932910509F4F5
:1024E0006AC08A32910509F474C008958933910550
:1024F000D1F082389105B9F08533910509F454C0C3
:102500000895843E910599F138F4823E9105F9F0E1
:10251000833E910509F10895863E910599F1873E24
:102520009105B9F108952091B2032370A1F080EED6
:1025300090E008952091B20320FD52C03091B30382
:1025400030FF09C024FF4FC090E080E004C020911C
:10255000B20322FDF7CF08952091B20322FD46C0B9
:102560003091B30330FDE3CF24FFF5CFEDCF2091C1
:10257000B30321FFF0CF8091B20384FDE5CF87EE56
:1025800090E008952091B20323FFE5CF24FDDCCF36
:10259000F6CF2091B20323FD2CC03091B30331FF5D
:1025A000E3CF84EE90E008952091B20325FFD3CFCE
:1025B00089E290E008952091B20325FFCCCF85E316
:1025C00090E008952091B20326FFC5CF8AE290E003
:1025D00008952091B20326FFBECF81E390E00895D5
:1025E00089E390E0089583EE90E0089582EE90E014
:1025F000089586EE90E008959091B20392FF06C090
:10260000282F28712830F9F4877F846093FF06C053
:10261000282F28712831F1F4877E84612091B3033B
:1026200020FF06C0382F38713830D9F4877F816099
:1026300021FF06C0282F28712831D1F4877E8161BF
:1026400094FD877E0895282F24712430F9F68B7F1E
:102650008860DCCF282F2471243101F78B7E8861BC
:10266000DDCF382F3171313019F78E7F8860E0CFA0
:10267000282F2171213121F78E7E8861E1CF80E002
:1026800008950C94EB0F0E9459148FE39CE9019775
:10269000F1F700C000000E94591480E00E948F13DF
:1026A00080FF04C00E9441130C94012E08950C94E5
:1026B00043130E94F10F811102C00E9495100E94E5
:1026C000FC0F8093EB010E9404109093B30380935E
:1026D000B2030E9457130E9400100E94910980913A
:1026E00074010C94A40908950C94731308950C9428
:1026F0007613E82FF0E0EE0FFF1FE254FC4F21E0CD
:1027000030E002C0220F331F6A95E2F78081918189
:102710002823392381E0232B09F480E00895E82F52
:10272000F0E0EE0FFF1FE254FC4F8081918108958D
:10273000089580EA8A95F1F7089500C008950C94F1
:102740009913F894E82FE295EF70F0E041A18F70B3
:1027500021E030E0B90102C0660F771F8A95E2F7E9
:10276000CB01962F9095942391A392A1892B82A3BC
:1027700078940895CF93DF93C2E3D1E089918F3F9E
:1027800011F00E94A11381E0C733D807B9F7C3E263
:10279000D1E089918F3F11F00E94A11381E0C233F3
:1027A000D807B9F7DF91CF910895AF92BF92DF922A
:1027B000EF92FF920F931F93CF93DF93EC01D62EEE
:1027C000062F10E0C8018E5C9E4F7C01FC018081C9
:1027D0008F3F09F44FC0F894E82FE295EF70F0E0D6
:1027E00091A18F7021E030E001C0220F8A95EAF7B5
:1027F000892F822B81A382A12095282322A378945C
:102800000E949D13E3E2F1E062E371E041E050E0F9
:10281000B12CA12C21912F3F81F0A22FA295AF7056
:10282000A05EB0E08C9190E02F7002C095958795E6
:102830002A95E2F79A0180FF02C020E030E0A22A48
:10284000B32A440F551F6E177F0721F7F7018081C8
:102850008F3F11F00E94A11361E0A114B10409F4AB
:1028600060E08D2D0E949F13000F111FC00FD11F1C
:10287000B982A882DF91CF911F910F91FF90EF90C5
:10288000DF90BF90AF9008950E94BA138AE0EEEBFC
:10289000F3E0DF01982F1D929A95E9F7E4EBF3E05E
:1028A000DF011D928A95E9F785E00E94A7140C9438
:1028B000AD03FF920F931F93CF93DF93CDB7DEB796
:1028C0002A970FB6F894DEBF0FBECDBFFE0131963A
:1028D0008AE0DF011D928A95E9F710E0FE2E0F2FA6
:1028E000612F8F2D902F0E94D5131F5F1530C1F7D8
:1028F0004AE050E06F2D702F84EB93E00E94713519
:102900009C0111E0892B09F410E0232B49F08AE0A7
:10291000EF2DF02FA4EBB3E001900D928A95E1F733
:10292000212F45E06EEB73E084EB93E00E94A81446
:102930000E94AF03812F2A960FB6F894DEBF0FBE18
:10294000CDBFDF91CF911F910F91FF900895089512
:10295000FF920F931F93CF93DF93F82E092F162F1B
:10296000D72FC42F222349F081E08093EE010E94EB
:10297000A22D9093ED018093EC018091EE018823CC
:10298000A1F08091EC019091ED010E94CE2D059770
:1029900060F0EF2DF02FA12FBD2F90E080E0D0E070
:1029A0008C179D0744F01092EE01DF91CF911F919B
:1029B0000F91FF900895219131912D933D930196B0
:1029C000EFCF0E94A22F0E94D0100C94AE2F0E9435
:1029D000B22F0E9474110C94CC2F0E94422D0E94A1
:1029E000892F0E94B6100E94E1140E94E7140E94F1
:1029F000C810FBCF8091F50120912204309123046F
:102A000080FF13C08091070190E0B9010E94223538
:102A10009C01369527953695279520383105A0F5E8
:102A20002115310599F1822F089581FF0AC0809107
:102A3000070190E0B9010E9422359C013695279547
:102A4000ECCF82FF08C08091070190E0B9010E949D
:102A500022359C01E2CF8091F4018823F1F240916C
:102A600006016091070170E0841710F0C901EFCFF3
:102A700090E00E942235B9010E942235642F70E057
:102A80000E9433359B01C9CF8FE7089581E00895F7
:102A90008091F50180FF0CC06091030170E0759595
:102AA0006795759567956115710559F1862F08959C
:102AB00081FF06C06091030170E075956795F3CFC3
:102AC0006091030170E082FD0CC06091F301662308
:102AD000A9F0209102018091030190E0621730F08B
:102AE000BC0160387105F8F28FE7089570E00E942C
:102AF0002235622F70E00E944735F3CF61E070E02D
:102B0000D5CF81E00895805F803108F045C0E82F7F
:102B1000F0E0E651FA4C0C945B350E94FA14819572
:102B20008093F90108950E94FA14FACF0E94FA14D2
:102B300081958093F80108950E94FA14FACF0E94BB
:102B400048158093FA0108950E9448158195F9CFA0
:102B50000E94481581958093FB0108950E944815B5
:102B6000FACF8091F70181608093F70108958091F9
:102B7000F7018260F9CF8091F7018460F5CF8091F1
:102B8000F7018860F1CF8091F7018061EDCF8091EE
:102B9000F50181608093F50108958091F5018260CF
:102BA000F9CF8091F5018460F5CFE82F3091F901DC
:102BB0002091F8019091FA018091FB01E03FA1F48E
:102BC00037FD1092F9018091F8019091F901892B5C
:102BD00011F41092F4018091FA019091FB01892B7C
:102BE00011F41092F3010895E13F19F413164CF318
:102BF000EACFE23F29F427FFE6CF1092F801E3CFB6
:102C0000E33F19F41216CCF3DECFE93F29F419168D
:102C1000D4F61092FA01D7CFEA3F19F497FFD3CF39
:102C2000F8CFEB3F29F487FFCECF1092FB01CBCF3B
:102C3000EC3F19F41816CCF3C6CFE45FEC3008F083
:102C4000C2CFF0E0E650FA4C0C945B358091F7016E
:102C50008E7F8093F701B7CF8091F7018D7FF9CFF9
:102C60008091F7018B7FF5CF8091F701877FF1CFBE
:102C70008091F7018F7EEDCF8091F5018E7F80935B
:102C8000F501A1CF8091F5018D7FF9CF8091F501FC
:102C90008B7FF5CF0E94A22D2091F8013091F90190
:102CA000232B21F08093F1019093F2012091FA01FE
:102CB0003091FB01232B21F08093EF019093F001E1
:102CC00086EF91E00C947C2CCF92DF92EF92FF92F2
:102CD0000F931F93CF93DF9300D000D000D0CDB7D8
:102CE000DEB726E0E6EFF1E0CE010196DC010190CF
:102CF0000D922A95E1F7C090F801D090F901E0908B
:102D0000FA01F090FB011092F8011092F901109273
:102D1000FA011092FB012C2D2D298C0191F080914C
:102D2000F1019091F2010E94CE2DFC012091F4015D
:102D3000222309F440C0809108018E171F0608F471
:102D400049C08E2D8F2991F08091EF019091F00173
:102D50000E94CE2DFC012091F301222309F47DC0B5
:102D6000809104018E171F0608F486C08091F80137
:102D70009091F901892B9091FA01892B9091FB0197
:102D8000892B11F00E944A1686E0F801A6EFB1E007
:102D900001900D928A95E1F726960FB6F894DEBF62
:102DA0000FBECDBFDF91CF911F910F91FF90EF909C
:102DB000DF90CF9008958091090190E06AE070E083
:102DC0000E9422358E179F0708F0BBCF2F5F2093FC
:102DD000F40102C02F3FD1F7CC2051F00E94FA1429
:102DE0006FEF1C140CF461E00E9419358093F80118
:102DF000DD2051F00E94FA146FEF1D140CF461E015
:102E00000E9419358093F9018091F801882309F413
:102E100098CF2091F901222309F493CF082E000CBA
:102E2000990B65EB70E00E942235992371F0909325
:102E3000F801822F220F990B65EB70E00E9422357A
:102E4000992339F09093F9017CCF81E08093F801C8
:102E5000F0CF81E08093F90174CF8091050190E07B
:102E60006AE070E00E9422358E179F0708F07ECF3F
:102E70002F5F2093F30102C02F3FD1F7EE2051F0D6
:102E80000E9448156FEF1E140CF461E00E94193582
:102E90008093FA01FF2051F00E9448156FEF1F1434
:102EA0000CF461E00E9419358093FB018091FA01D6
:102EB0002091FB01882309F459CF222309F456CF2E
:102EC000082E000C990B65EB70E00E9422359923C7
:102ED00071F09093FA01822F220F990B65EB70E04D
:102EE0000E942235992339F09093FB013FCF81E076
:102EF0008093FA01F0CF81E08093FB0137CF86E029
:102F0000E6EFF1E0DF011D928A95E9F71092F401F6
:102F10001092F3011092F501089583E290E00E946F
:102F20009E358D3589F484E290E00E949E35873F7E
:102F300059F485E290E00E949E3591E0873109F0D6
:102F400090E0892F8170089580E0FCCFCF93C82F47
:102F50006FEF81116DE583E290E00E94AC356FEF79
:102F6000C11167EF84E290E00E94AC356FEFC111B0
:102F700067E185E290E0CF910C94AC350895CF9352
:102F8000DF9300D000D0CDB7DEB786E290E00E949C
:102F90009E35282F30E050E040E0CA01B9010F9083
:102FA0000F900F900F90DF91CF9108950895CF93D8
:102FB000C62F0E94D6176C2F86E290E0CF910C941A
:102FC000AC3580E00E94A61760E070E0CB010E9463
:102FD000D7170E94961E0E94372081E00C94A617F6
:102FE0000E94BE170E94BF170E94D6170E948D171D
:102FF000811102C00C94E1170895CF939C01FB014D
:10300000C281CC2301F182519F45409720F58EEE7D
:10301000820F0E944720C0E08C2FCF91089581E05D
:103020000E94B70943E062E081E00E94A403F3CF6D
:1030300081E00E94C20943E062E081E00E94A403B3
:10304000EBCF82E0F6CF80319F4591F321313F45B0
:10305000C1F3C1E0E1CF2031EFE53E0701F382E0AB
:1030600021313F45E9F2D8CF2FEFFC0120830895AD
:10307000EF92FF920F931F93CF93DF93CDB7DEB7FD
:103080002E970FB6F894DEBF0FBECDBF8D839E8303
:10309000162FAD81BE81EC918091FA029091FB02D6
:1030A000892B79F0EE3F31F511968C91833018F031
:1030B00085508330F8F4612F8D819E810E94BB1B67
:1030C00019C0E43150F4EE2351F0E150E33138F40B
:1030D000F0E0EA5FF94C0C945B35EE3F61F3612F51
:1030E0008D819E810E94341805C0ED81FE81118280
:1030F00089E08283612F8D819E812E960FB6F89490
:10310000DEBF0FBECDBFDF91CF911F910F91FF901A
:10311000EF900C947A2EAD81BE8111968C91823005
:1031200099F0833011F18130D1F60E94AE2D0E94CA
:1031300061356F83788789879A87ED81FE81628305
:10314000738384839583D6CF0E94BF170E94613515
:103150006B877C878D879E87AD81BE8112966D932C
:103160007D938D939C931597C5CF8091FC02909190
:10317000FD02892B09F4BECFED80FE8000E0802F98
:103180000E948F13F701928383830F5FF2E0EF0EAB
:10319000F11C0530A1F7AECFAD81BE8111968C91A7
:1031A0001197823009F09BCF12968D919D910D90D1
:1031B000BC91A02D89839A83AB83BC83BC01CD01D4
:1031C0000E9461350E94D71795CFED81FE81438122
:1031D000628181810E94DB1D982789279827AD8114
:1031E000BE8115969C938E93149784CFED81FE81BA
:1031F00024813581322723273227438162818181CF
:103200000E94FD1D77CF0E94961E74CF8FEFAD8177
:10321000BE818C936FCF0E94ED1FED81FE81818373
:1032200069CF0E94EF1F982789279827AD81BE811B
:1032300012969C938E9311975DCFED81FE81218133
:1032400032819381692F70E09D3108F053CFAF0137
:103250004C5F5F4F922F832F0E94F21F4BCF8091C4
:10326000FC029091FD02892B09F444CFAD81BE810F
:1032700011962D913C91129713969C911397692F5B
:1032800070E09D3108F036CFAD014C5F5F4F922F5B
:10329000832F0E9415202ECF0E9437202BCF0E9413
:1032A000C21DBBCFAD81BE8111962D913C9112976D
:1032B00013969C911397692F70E09D3108F01ACFF7
:1032C000AD014C5F5F4F922F832F0E94241F12CFBE
:1032D000ED81FE81218132819381692F70E09D31E2
:1032E00008F008CFAF014C5F5F4F922F832F0E94F1
:1032F000471F00CF8091FC029091FD02892B09F4B9
:10330000F9CE8D819E810E947A2EFFEF21EE84E01E
:10331000F15020408040E1F700C000000E94012EE3
:10332000E9CE8F929F92AF92BF92CF92DF92EF92AF
:10333000FF920F931F93CF93DF93CDB7DEB72A97FA
:103340000FB6F894DEBF0FBECDBF04E312E0F12C40
:10335000E12C8FE0C82E8BE1D82E99E3A92E9BE1BA
:10336000B92E24E1822E2AE1922EF801D182C08268
:10337000B382A28295828482F58AE48ABE016F5F5D
:103380007F4F8E2D0E94361E892B29F489859A85C0
:10339000F801938B828BFFEFEF1AFF0A0A5E1F4F33
:1033A00088E0E816F10409F72A960FB6F894DEBF14
:1033B0000FBECDBFDF91CF911F910F91FF90EF9086
:1033C000DF90CF90BF90AF909F908F900895CF9354
:1033D000DF9300D000D00F92CDB7DEB790931904E1
:1033E00080931804811520E2920748F40F900F9003
:1033F0000F900F900F90DF91CF910C940E038EEFF2
:1034000089838A831B820E94A22D8160782F498143
:103410005A816B81892F0F900F900F900F900F9012
:10342000DF91CF910C9440050F931F93CF93DF93BF
:103430008C01EB0164EE72E08C2F0E94361E892B0A
:10344000A1F48091380490913904009799F4DD2714
:10345000C251DD4F8881F80110821882833049F112
:1034600088F4813099F08230C1F0DF91CF911F91C3
:103470000F910895EFE9FFE03197F1F700C00000E8
:103480000197E3CF8430D1F0853079F78091E40261
:103490009091E502009749F306C08091E602909171
:1034A000E702009799F3DF91CF911F910F910C9450
:1034B000E7198091E8029091E902F3CF8091EA0246
:1034C0009091EB02009779F72091E4023091E502A8
:1034D0008091E6029091E70221153105D9F200971B
:1034E00011F7C901E0CFCF93DF9300D000D00F9246
:1034F000CDB7DEB79093190480931804811520E2AC
:10350000920748F40F900F900F900F900F90DF915B
:10351000CF910C94F9028EEF89838A8381E08B83AB
:103520000E94A22D8160782F49815A816B81892F59
:103530000F900F900F900F900F90DF91CF910C9400
:103540004005CF92DF92EF92FF921F93CF93DF93CC
:10355000CDB7DEB72A970FB6F894DEBF0FBECDBF4A
:10356000E8ECF3E080E5DF011D928A95E9F7ECEFE6
:10357000F1E088E3DF011D928A95E9F788ECC82E17
:1035800083E0D82E7F0110E0F701D182C082BE0116
:103590006F5F7F4F812F0E94661E892B79F488E030
:1035A000FE013196D60101900D928A95E1F7898549
:1035B0009A85D70113969C938E931297BAE0CB0EFF
:1035C000D11CE7E0EE0EF11C1F5F1830E9F62A96D9
:1035D0000FB6F894DEBF0FBECDBFDF91CF911F9124
:1035E000FF90EF90DF90CF900895CF93DF93D82F87
:1035F000C92F0E94731A8091380490913904009762
:1036000031F48D2F9C2FDF91CF910C94E719EFE9C6
:10361000FFE03197F1F700C000000197F0CF0F9362
:103620001F93CF93DF938C01862F64EE72E00E948C
:10363000361E892BC9F4C091E402D091E50220978F
:1036400099F0F8018081833069F4CE010E94F51A67
:10365000CE010E94F51ACE01DF91CF911F910F91FB
:103660000C94F51A8430B8F7DF91CF911F910F9128
:1036700008950F931F93CF93DF938C01EB0164EEBA
:1036800072E08C2F0E94361E892B09F063C0FE0168
:10369000FF27D8018C91E251FD4F8130D1F419966A
:1036A0008C91199781115BC01A968C91882309F42B
:1036B00056C082E080838091E6029091E7020097F5
:1036C000D9F48091E4029091E502009709F442C098
:1036D00013C08230E9F519968C91199781112DC08C
:1036E0001A968C9181110EC083E080838091E8024C
:1036F0009091E902009719F1DF91CF911F910F91FD
:103700000C94731A84E080838091EA029091EB021A
:10371000009791F78091E4029091E502009711F1F2
:103720000E94F51A8091E6029091E702009721F736
:103730008091E4029091E502DFCF85E08083809163
:10374000E4029091E502009729F00E94F51AF0CF6B
:1037500086E08083DF91CF911F910F91089581E0E2
:103760008083AFCF8091E6029091E702AECF0E94B6
:1037700091190C94A11ADF92EF92FF920F931F936D
:10378000CF93DF93CDB7DEB72A970FB6F894DEBF9D
:103790000FBECDBF8C01603239F5DC011196EC9182
:1037A0001197EE3008F5F0E0E75EF94C0C945B35CC
:1037B00088E0E7E3F1E0DE01119601900D928A9531
:1037C000E1F7F80131968FE1DF011D928A95E9F763
:1037D00084E0F801808388E0FE013196D8011496D8
:1037E00001900D928A95E1F72A960FB6F894DEBF04
:1037F0000FBECDBFDF91CF911F910F91FF90EF9042
:10380000DF9008958CE48C9381E011968C9311974E
:1038100012961C92129713961C92E6CFFC0183819C
:1038200090E0982F88272281820F911D092E000C8D
:10383000AA0BBB0B45E0880F991FAA1FBB1F4A9517
:10384000D1F7AC01BD01405E5F4F6F4F7F4F48170E
:1038500059076A077B0740F28C34F1E09F07A10506
:10386000B10510F64D3421E052076105710520F0D5
:103870004CE451E060E070E0481B590BBC01665419
:103880007E4FC8012A960FB6F894DEBF0FBECDBF9B
:10389000DF91CF911F910F91FF90EF90DF900C94EB
:1038A000683540E250E06FEF70E00E94873580910C
:1038B000FC02D8018C938091FA0211968C93119797
:1038C00012961C92129713961C92139781E01496ED
:1038D0008C93149782E015968C9386CF81E090E0CC
:1038E0009093FB028093FA0282E390E09093F902B6
:1038F0008093F8020E94A22D9093F7028093F60223
:1039000073CF8091FA029091FB02892B91F160E0D4
:1039100080E00E947913E82E62E081E00E94791332
:10392000F82E8091F6029091F7020E94CE2D8536F6
:10393000910550F1EE2041F1FF2031F10E94A22DBE
:103940009093F7028093F6028091F8029091F90229
:1039500001979093F9028093F802892B51F4109209
:10396000FB021092FA0281E090E09093FD028093B6
:10397000FC028091FC02F80180838091FA0281832D
:103980008091F802828330CF82E390E09093F90235
:103990008093F802EECF1092FD021092FC0224CF29
:1039A00040E250E0BC0112968D919C912A960FB690
:1039B000F894DEBF0FBECDBFDF91CF911F910F9165
:1039C000FF90EF90DF900C948921BC016F5F7F4FD7
:1039D0004FE150E0FC01828193810E94BB21D8011C
:1039E0008C9302CFBC016C5F7F4F4CE150E0FC0137
:1039F000828193810E94E921F2CF2A960FB6F89432
:103A0000DEBF0FBECDBFDF91CF911F910F91FF9011
:103A1000EF90DF900C944C21FC018281823009F4FC
:103A20003FC068F4811125C031968FE1DF011D92FE
:103A30008A95E9F788E0F80180838183D5CE8330C9
:103A400009F442C0843009F0CFCE13968C919AE0ED
:103A50003496DE01119601900D929A95E1F7BE0120
:103A60006F5F7F4F0E947E1EF80180830E94A11A23
:103A7000BBCE13968C912AE0D22EFE0131967F01A7
:103A8000DF01ED2D1D92EA95E9F7B7010E94361E80
:103A9000D8018D93F70101900D92DA94E1F7A4CE4D
:103AA00013968C919AE03496DE01119601900D9256
:103AB0009A95E1F7BE016F5F7F4F0E944E1EF8019D
:103AC00080830E94911990CE13968C919AE0D92E02
:103AD000FE0131967F01DF01ED2D1D92EA95E9F798
:103AE000B7010E94661ED4CFCF93DF93EC01FB0198
:103AF000828181112FC0D755CF3FD10509F050F5F4
:103B000064EE72E08C2F0E94361E892B19F5CE01CF
:103B100066E170E00E942235FC01EC5CFD4F86817D
:103B20008130E1F48091E4029091E502892B91F0DB
:103B30008091E6029091E702892B61F08091E80282
:103B40009091E9022091EA023091EB02822B932BB3
:103B5000892B61F081E0DF91CF9108958230D1F718
:103B60008091E8029091E902892BA1F3CE0166E1F0
:103B700070E00E9422358C5C9D4FFC01108A0E94EF
:103B8000CF2AE8CF84E00895E82F862F90E06EE1F9
:103B900070E00E94223550E0440F551F9C01240F15
:103BA000351F8E2F90E066E970E00E942235820F6B
:103BB000931F879608950F931F93CF93DF938430BD
:103BC000C8F46530B8F44F30A8F40E94C41D8C01CD
:103BD0000E949E35C82FD0E0DC2FCC27C80101966B
:103BE0000E949E359E01282BC901DF91CF911F9124
:103BF0000F91089590E080E0F8CF0F931F93CF933B
:103C0000DF93E9018430E0F46530D0F44F30C0F444
:103C100021153C4531F42091FC023091FD02232B0B
:103C200079F00E94C41D8C016D2F0E94AC356C2F61
:103C3000C8010196DF91CF911F910F910C94AC3583
:103C4000DF91CF911F910F9108958232910520F459
:103C500081589D4F0C949E3580E0089582329105E5
:103C600020F481589D4F0C94AC350895362F272FA2
:103C7000883088F490E06AE070E00E942235BC0150
:103C80006F557D4F4AE050E0832F922F0E948E3572
:103C900090E080E008958FEF9FEF0895362F272F53
:103CA000883088F490E06AE070E00E942235BC0120
:103CB0006F557D4F4AE050E0832F922F0E94D03500
:103CC00090E080E008958FEF9FEF0895362F272F23
:103CD000883088F490E06AE070E00E942235BC01F0
:103CE0006F507D4F4AE050E0832F922F0E948E3517
:103CF00090E080E008958FEF9FEF0895362F272FF3
:103D0000883088F490E06AE070E00E942235BC01BF
:103D10006F507D4F4AE050E0832F922F0E94D035A4
:103D200090E080E008958FEF9FEF08958F929F922B
:103D3000AF92BF92CF92DF92EF92FF920F931F93B9
:103D4000CF93DF93CDB7DEB764970FB6F894DEBF9D
:103D50000FBECDBFA090FC02B090FD0281E090E0CC
:103D60009093FD028093FC02F12CE12CC7016BE4DF
:103D700070E00E9422358C01912C15C0F60125912E
:103D80003491482D692D8E2D0E94FD1D22E0C20E1A
:103D9000D11C83943FE08312F1CF015F1F4F9394B6
:103DA00085E0981649F0C801880F991FDC01AC58CE
:103DB000BF4F6D01812CE2CFBFEFEB1AFB0A24E06D
:103DC000E216F10499F60E944C211C861B861E8681
:103DD0001D86188A1F861A8A198A88EC90E09C8BA7
:103DE0008B8B10E0BE01655F7F4F812F0E944E1EBE
:103DF0001F5F1830B9F7FE0131968AE0DF011D928E
:103E00008A95E9F710E0FE2E0F2F6F2D702F812F6E
:103E10000E947E1E1F5F1830C1F7B092FD02A09273
:103E2000FC0264960FB6F894DEBF0FBECDBFDF91E3
:103E3000CF911F910F91FF90EF90DF90CF90BF90A7
:103E4000AF909F908F900895EF92FF920F931F93E2
:103E5000CF93DF938C01EA017A01E60EF71EC801C9
:103E60008796CE15DF0539F4DF91CF911F910F9121
:103E7000FF90EF900895083522E0120730F40E9479
:103E80009E3589930F5F1F4FEACF80E0FACF6F9284
:103E90007F928F929F92AF92BF92CF92DF92EF92DA
:103EA000FF920F931F93CF93DF93EC017B018A0165
:103EB00088359240C8F488E592E08C1B9D0B8617EC
:103EC000970790F03E0137E2630E711C8091FC026F
:103ED0009091FD02892BB9F0E00EF11ECE0187967C
:103EE0000E151F0509F051C0DF91CF911F910F9161
:103EF000FF90EF90DF90CF90BF90AF909F908F900A
:103F00007F906F9008956E0181E0C822DD24C0FF8C
:103F10000FC0CE0186960E949E35F80190818927B8
:103F20009827892781159C4519F48FEFF801808324
:103F3000CE018E0D9F1D570180FF13C0F1E0AF1A17
:103F4000B10848018A0C9B1CC3018E0D9F1D0E9465
:103F50009E35F401908181159C4519F48FEFF40191
:103F60008083F801EC0DFD1D2FEFCA14DB0408F06F
:103F7000B3CF9081818181159C4511F420832183E9
:103F800082E0C80ED11C3296F0CFC835E2E0DE07E1
:103F900020F4F80160810E94AC350F5F1F4F21961D
:103FA0009DCF462F672F2091FA023091FB02232BE1
:103FB00089F47E3F39F44E3F69F480911804909162
:103FC00019040895843030F4753020F44F3010F423
:103FD0000C94DB1D90E080E0089580E108958FEB64
:103FE00090E00895EF92FF920F931F93CF93DF938A
:103FF0008C01EA017A01E60EF71EC8018F5B9C4F27
:10400000CE15DF0539F4DF91CF911F910F91FF900D
:10401000EF9008950F3B110530F40E949E3589936F
:104020000F5F1F4FEACF80E0FACFEF92FF920F931E
:104030001F93CF93DF938C01EA017A01E60EF71EFE
:10404000C8018F5B9C4FCE15DF0539F4DF91CF910E
:104050001F910F91FF90EF9008950F3B110518F4F9
:1040600068810E94AC3521960F5F1F4FE9CFCF9337
:10407000DF93C1E4D3E060E0CE010E94AC3521962D
:10408000C11584E0D807B9F7DF91CF910895CF9299
:10409000DF92EF92FF920F931F93CF93DF9300D0A5
:1040A00000D0CDB7DEB7F82E2FE0281740F08FEF05
:1040B00093E00E949E3501E413E08823C9F00F903D
:1040C0000F900F900F90DF91CF911F910F91FF9064
:1040D000EF90DF90CF900895011544E0140779F335
:1040E000C8010E949E35811101C0FA940F5F1F4FD5
:1040F000F110F2CF80911F0190912001A091210138
:10410000B091220189839A83AB83BC8378015FEFEE
:10411000E51AF50AC8010E949E3589831A82882310
:1041200071F2813009F046C0680182E0C80ED11CEE
:10413000C7010E949E35E82E8A83882309F4BFCFE9
:10414000C6010E949E35F82E8FEF8E0D833068F4E5
:104150006801E3E0CE0ED11CFB82FF2021F0CE01EE
:1041600001960E940D058601D1CFF4E0EF12FBCF3E
:10417000680124E0C20ED11CC80103960E949E353E
:10418000FF2009F49CCF882309F499CF8150990B23
:104190006FEF70E00E9422354F2D4150550B840F78
:1041A000951F019700F3EFE9FFE03197F1F700C0A9
:1041B0000000F7CFCE0101960E940D056701D3CF15
:1041C000EAE1F4E0848195812AE030E0B9010E94BF
:1041D000333560930901868180930801828580933D
:1041E000070184858093060186859785B9010E9421
:1041F000333560930501808980930401828980931F
:104200000301848980930201089580911A0490919A
:104210001B040C94D5240F931F93CF93DF930AE1D3
:1042200014E0D0E0C0E0CE010E94251EF8016191AB
:104230008F01861719F0CE010E942E1E2196C232E0
:10424000D10589F7DF91CF911F910F9108950F93B9
:104250001F93CF93DF930AE114E0D0E0C0E0CE01DA
:104260000E94251EF80181938F012196C232D1054B
:10427000B1F7CCE0D3E0FE0185919491009711F065
:10428000FC0109952896F3E0C43ADF07A1F7DF9116
:10429000CF911F910F910895EAE1F4E0128E138EF1
:1042A0008FEA90E09183808385E0848F88E893E1B2
:1042B000938382838AE090E09583848324E130E0D5
:1042C0003783268348E050E0518740879387828771
:1042D0002EE130E0358724879787868720E530E018
:1042E000318B208B538B428B48E250E0558B448BB3
:1042F00042E350E0578B468B48EC50E0518F408FA3
:10430000158E978F868F31A320A30E940B210C94CA
:104310002721EF92FF920F931F93CF93DF937C019E
:10432000EB018A016FEF70E0CE010E94873526E035
:1043300033E0AEE9B3E090E080E0AC014E5F5F4F68
:104340000417150788F0F90165917491E616F706D0
:1043500030F48C0F9D1FFC0171836083CA01285FBC
:104360003F4FA217B30749F7DF91CF911F910F91EC
:10437000FF90EF900895CF93DF93EC01CB01DA012A
:1043800026E033E0F90145915491C417D50749F06F
:10439000285F3F4F43E02E393407A1F78FEF9FEF9F
:1043A00015C0A9014E5F5F4FFA0165917491A61780
:1043B000B707A0F3FA01459154912C5F3F4FF901E3
:1043C000659174910E947E3590E080E0DF91CF91FD
:1043D0000895CF93DF93DC019A01C6E0D3E0FE019C
:1043E00085919491A817B90741F0289683E0CE39BA
:1043F000D807A9F78FEF9FEF1DC0CE010296FC01F1
:104400004591549124173507A8F3FC014591549127
:10441000FE013496859194910E947E350E940B2175
:10442000FE01369685919491009711F0FC01099553
:1044300090E080E0DF91CF910895809132049091D7
:104440003304089580913704817008958091370472
:104450008695817008958091370482FB882780F9C2
:1044600008958091370483FB882780F9089580910F
:1044700030049091310408959C018832910568F4CC
:104480004E97E8F42450310980913504829581706B
:104490002A313105C8F080E008958933910558F438
:1044A0008D32910510F48B97B1F78091350482FB22
:1044B000882780F909C084369105B9F3ECCF809143
:1044C000350483FB882780F991E08927089580913E
:1044D000350485FB882780F908958091350486FB93
:1044E000882780F90895CF93DF93EC01FB01828147
:1044F000882309F4F2C0C136FDE5DF0749F048F52D
:10450000C631ECE5DE07E0F4C230FCE5DF07F0F091
:104510000E9404109093B3038093B203C631ECE57C
:10452000DE0748F5C230FCE5DF07C0F48091B20336
:104530009091B3030E9412100E94620680E006C0B0
:104540009E012A5F3C452930310510F3DF91CF9160
:104550000895C53A9DE5D907C9F7DACFFE01E350C2
:10456000FC458091B2038160E331F10528F5E95DF6
:10457000F94C0C945B35C3308DE5D80770F4CA3F15
:104580009CE5D90798F2FE01EB5FFC45E830F105A8
:1045900010F5E65CF94C0C945B35C136EDE5DE07B1
:1045A00009F494C09091B203892F8E7F90FF8160AF
:1045B000C53ADD4509F0BACF8093B203B7CF8091F9
:1045C000B2038260F9CF8091B2038460F5CF80910D
:1045D000B2038860F1CF8091B30381608093B3030D
:1045E000A5CF8091B3038260F9CF8091B20380613F
:1045F000E3CF8091B2038062DFCF8091B203806409
:10460000DBCF0E9462068091B2038068D5CF809193
:10461000B2038C60D1CF8091B3038360DFCF8091F0
:10462000B2038E7FC9CF8091B2038D7FC5CF8091B9
:10463000B2038B7FC1CF8091B203877FBDCF8091C2
:10464000B3038E7FCBCF8091B3038D7FC7CF809193
:10465000B2038F7EB1CF8091B2038F7DADCF8091B9
:10466000B2038F7BA9CF0E9462068091B2038F773D
:10467000A3CF8091B203837F9FCF8091B3038C7FC0
:10468000ADCF8091B20382FB992790F921E0922768
:1046900090FB82F990FB83F98FCF8091B303982F21
:1046A000909591708E7F892B90FB81F997CF0E9416
:1046B00062069091B203892F97FB87F980587CCFCF
:1046C00081E00E94971032CF80E0FBCF9091B2033F
:1046D000892F8F7E94FF80616FCF81E037CF8091EB
:1046E0000A01877F80930A0182E00E94E50E809193
:1046F0000A0184FF06C08F7E80930A0182E00E9437
:10470000CB0E80910A0185FF06C08F7D80930A0140
:1047100080E20E94CB0E0C94320FCF93DF93EC011A
:10472000662319F082E00E94DF0ECE0190568115BB
:1047300020E2920720F0905E8115904108F4DD2779
:10474000CE01DF91CF910C94F9029C0130562115D6
:1047500040E2340720F0305E2115304108F49927FB
:104760000C940E03AC0123E0969587952A95E1F70A
:104770008E719927FC01E250FD4F0190F081E02DF0
:104780004F70552721E030E002C0220F331F4A95B9
:10479000E2F7662341F0E22BF32B82509D4FDC01C0
:1047A000ED93FC93089520953095E223F323F5CF04
:1047B0009C01FC0183E0F695E7958A95E1F7EE719F
:1047C000FF27E250FD4F2F70332781E090E0AC01CE
:1047D00002C0440F551F2A95E2F79A01808191810A
:1047E0002823392381E0232B09F480E00895DF9208
:1047F000EF92FF920F931F93CF93DF93EC017B0116
:10480000D42E890180910A0182FF87C0209126035E
:10481000309127032C173D0719F0209709F07DC030
:1048200090910A019B7F90930A0161E091FD10C075
:104830008091280390912903A701481B590B61E03F
:1048400080910B0190910C014817590708F460E022
:10485000617080910A0160FB81F980930A01C901AE
:104860000E94B2230E94C80E81FF08C080910A01F5
:10487000806180930A0182E00E94D10E0E94C80EDE
:1048800085FF08C080910A01806280930A0180E25E
:104890000E94D10E60910A0166956170A801809115
:1048A0002603909127030E948D23D11014C080917C
:1048B000380490913904009741F560910A0166959A
:1048C0006170A80180912603909127030E94A5237F
:1048D0000E946F2331C0B801809126039091270375
:1048E0000E946722882319F3B801809126039091D2
:1048F00027030E946D228111DACFDF91CF911F91A2
:104900000F91FF90EF90DF900895EFE9FFE031976E
:10491000F1F700C000000197CECFCE010E94D8234E
:10492000682FA801CE010E94A523809126039091B3
:1049300027038C179D0761F2F0922903E092280368
:10494000DCCF8091350480FF1EC080910A0182FF78
:104950001AC00E94A22DBC018091280390912903C6
:104960009B01281B390B80910B0190910C0128179A
:10497000390748F02EE133E041E080912603909121
:1049800027030C94F723089590910A01892F8E7FB5
:1049900090FF816080930A010C946F2380910A013B
:1049A0008E7F80930A010C946F2390930C01809367
:1049B0000B010895CF92DF92EF92FF920F931F9316
:1049C000CF93DF93EC018B018091350480FD0CC007
:1049D000FF24F3948F2DDF91CF911F910F91FF90C2
:1049E000EF90DF90CF9008950E94A22D6C01F80106
:1049F0008281882391F180910A0182FF08C02EE113
:104A000033E040E0B60190E080E00E94F723CB3134
:104A1000FCE5DF07C9F0CC312CE5D207D9F0CA316B
:104A20008CE5D80711F40E94C424CE01905681155C
:104A3000E0E29E0720F0905E81159041E0F4109234
:104A4000270310922603C4CF80910A0181608093CE
:104A50000A01EBCF0E94CE24E8CF80910A018F7E1D
:104A6000C13ED10531F0C53ED105B9F580910A01AD
:104A70008F7D80930A0180910A0180FFA9CFB80140
:104A8000CE010E943C22F801F280882309F4C8C0BC
:104A9000FF2009F4BEC00E94C80EF82E0E94F00E3E
:104AA0008F298D7FB9F110922703109226038091F0
:104AB000350481FD2FC060E0CE010E94B223A80121
:104AC00060E0CE010E948D230E94F00E8D7F0E9437
:104AD0000C0F82E00E94AB0F76C0CE01905681157C
:104AE00020E2920720F0905E8115904120F680919F
:104AF0000A0182FF6DCFB801CE010E9426228111EA
:104B000067CF2EE133E040E0B60190E080E00E9404
:104B1000F7235ECF88E0F801AEE1B3E001900D929B
:104B20008A95E1F71092200310922203109221033C
:104B30008091260390912703C817D90709F04AC02E
:104B4000B801CE010E946722882309F443C08091F6
:104B500026039091270320910A0121FD36C0809100
:104B60002803909129037601E81AF90AB801809187
:104B70002603909127030E941D22E816F90650F59E
:104B80000E94C80E81FF08C080910A018061809355
:104B90000A0182E00E94D10E0E94C80E85FF08C063
:104BA00080910A01806280930A0180E20E94D10E06
:104BB00060910A0166956170A80180912603909129
:104BC00027030E948D23F12C05CFB8010E946D228E
:104BD0008111C5CF0E94C80E182F0E94F00E182B0D
:104BE00080910A0111FB81F980930A010E94F00E65
:104BF0008D7F0E940C0FD0932703C0932603D09281
:104C00002903C092280380910A01846080930A01DD
:104C100060CF980140E0B601CE010E94F723DACEC2
:104C2000F1100DCFD5CE08951F93CF93DF938091D0
:104C30009503C0912A0381111DC0DF91CF911F916F
:104C4000089511E01C0F10932A03D0E0CE016CE010
:104C500070E00E942235FC01EB5CFC4F8381948163
:104C60003C2F4D2F892B29F02081818128232F3F34
:104C7000F9F4C12F80919503C81718F3109295038A
:104C800010922A03DACF808591858F3F9807A1F093
:104C900061E00E941326CE016CE070E00E94223594
:104CA000FC01EB5CFC4F148213820E94ED0EE1CFFD
:104CB00086819781892B39F3832F942F6CE070E0E4
:104CC0000E942235FC01EB5CFC4F20813181428146
:104CD000538164817581868197810E94C70DDBCFE6
:104CE000109297031092960320910E0130910F01BC
:104CF000ECEFF1E090E080E02817390709F408951F
:104D00004581411102C01482168201963796F4CF74
:104D1000A0913303509134034A2F541301C00895D6
:104D2000242F30E0F901EE0FFF1FE55DFC4F60819D
:104D300071816817790791F467E070E00E9422356D
:104D4000FC01E450FE4F81E084834A13E8CF2F5FDB
:104D50003F4F237033272093330308952F5F3F4F36
:104D6000422F4370DACF7F928F929F92AF92BF9281
:104D7000CF92DF92EF92FF920F931F93CF93DF9327
:104D8000782E492FDB0114968C911497811167C0FE
:104D900080909503E5E3F3E090E080E050E001E0EF
:104DA00010E0881508F045C0A284B384CD90DC9053
:104DB00011972FEF3FEF912C692D70E07B01EE0CE6
:104DC000FF1CEC0CFD1CE701E880F980E114F10404
:104DD00031F0AE14BF0409F49B019394EDCF2F3F43
:104DE0003207D1F1E80102C0CC0FDD1F2A95E2F7AE
:104DF0005C2B980102C0220F331F9A94E2F72150D6
:104E000031095217130631F512962D913C911397E3
:104E10006CE070E00E942235FC01EB5CFC4F3783B4
:104E200026838EEF808381837086418781E015968B
:104E30008C93872D942FDF91CF911F910F91FF902D
:104E4000EF90DF90CF90BF90AF909F908F907F902A
:104E50000C9488261482138201963C96A2CFDF918F
:104E6000CF911F910F91FF90EF90DF90CF90BF9067
:104E7000AF909F908F907F900895CF93DF93C091D4
:104E80003303809134038C1306C00E941426DF91F3
:104E9000CF910C947026D0E0FE01EE0FFF1FE55D70
:104EA000FC4F20813181C90167E070E00E9422350A
:104EB000BC0164507E4FC9010E94B3262196C37085
:104EC000E0CF0F931F93CF93DF93FC01EB01208181
:104ED000318140E080E090E0A92FB0E0AA0FBB1F35
:104EE000A20FB31F6D917C9161157105B1F008811E
:104EF000198180E005C06A177B0709F441E08F5FE4
:104F0000A82FB0E0AA0FBB1FA00FB11F0D90BC913E
:104F1000A02D109781F79F5FDFCF442349F08917B9
:104F200008F4FE01CF01DF91CF911F910F910895F9
:104F3000F0E0E0E0F7CF80910D01882341F180910E
:104F4000980390919903009711F10E94CE2D209122
:104F500096033091970328173907C8F490913303CB
:104F600080913403981759F00E943D2710929703BF
:104F700010929603109299031092980308950E943C
:104F8000142610929903109298030C947026089599
:104F9000109299031092980310920D01809134039E
:104FA000809333030E9470260C94142680910D0187
:104FB00081110C94C82781E080930D0108952F92F0
:104FC0003F924F925F926F927F928F929F92AF9299
:104FD000BF92CF92DF92EF92FF920F931F93CF93E6
:104FE000DF93CDB7DEB72A970FB6F894DEBF0FBEBA
:104FF000CDBF7C012B01FB011281873FFCE59F07A0
:10500000F9F4112321F181E080930D01812F2A967B
:105010000FB6F894DEBF0FBECDBFDF91CF911F91C9
:105020000F91FF90EF90DF90CF90BF90AF909F9047
:105030008F907F906F905F904F903F902F9008954A
:10504000883F2CE5920709F04EC0111149C00CEFC2
:1050500011E0D12CC12C198688248394912C809145
:105060000E0190910F01C816D90608F446C0F2014E
:105070008281882309F45DC1F985FF2309F459C1B0
:105080000E94A22D90939903809398038091950399
:10509000883010F591E0980F9093950398E0F20115
:1050A000DE01119601900D929A95E1F790E06CE087
:1050B00070E00E9422358B5C9C4F28E0FE01319607
:1050C000DC0101900D922A95E1F72FEF3FEFFC01F3
:1050D00031872087F386E28611E0F9851F2796CF76
:1050E0000E94C82793CF893F9C4509F0B0CF112378
:1050F00009F4ADCF0E94D62789CFF80120813181F4
:10510000AA24AA94BB24BA94212C822D90E0FC01FD
:10511000EE0FFF1FE20FF31F408151814115510532
:1051200031F0E416F50609F45C012394EECF312C3E
:10513000FFEFAF16BF0609F447C0F8014481809124
:105140000D01411180E0F82FF1703F2EF2018281B4
:10515000882309F48FC0332009F48CC0B801C6013C
:105160000E9437223C01F8018581811113C094010E
:1051700001C0220FAA94EAF78681822B8683809150
:105180009603909197038615970520F470929703E4
:1051900060929603C40102C0880F991F2A94E2F717
:1051A0000197F80126812817190671F48091980358
:1051B00090919903009789F00E94CE2D6816790688
:1051C00060F421E0F8012483F985F329F9872FEFB2
:1051D000C21AD20A095F1F4F42CF20903303309189
:1051E00034033A87E0E0F0E08A85281212C00E17F7
:1051F0001F0751F3822D90E0FC01EE0FFF1FE55DCC
:10520000FC4FD182C082019683709927809334032A
:10521000DBCFA22CB12CF501EE0FFF1FE55DFC4F9B
:105220008081918167E070E00E942235FC01E450AA
:10523000FE4F3F01B801CF010E946127FC0100979A
:1052400099F021E024838017910709F4BDCF809164
:105250003303281209C06E167F0631F4C50101968A
:105260008370992780933303C5010196382F3370DB
:10527000232EBACFF8017580868190E071101EC090
:10528000940102C0220F331F2A94E2F72150310902
:105290008217930731F4442309F449C0C6010E94E0
:1052A0008826C40101C0880FAA94EAF7982F909528
:1052B000F801868189238683372C86CFAC010A2C9E
:1052C00002C0559547950A94E2F79C012150310997
:1052D00082239323892B39F540FF25C08281938156
:1052E000892BE1F01B821C821D821E82FEEFF98356
:1052F000FA830E94A22D8160582F692F9D838C8391
:10530000F801828193818F83988729813A814B812B
:105310007E810E94C70DF8011582C3CF60E0C601EF
:105320000E941326F8CFF42FF1707F2EBACF732C82
:10533000B8CF9091330380913403981719F00E94ED
:105340003D27CACE0E94142610929903109298030A
:105350000E947026C1CECF93DF93EB0186319C452E
:1053600009F03BC00E94C80E982F9A7A209134040D
:1053700020FF04C0382F347409F090E021FF04C0EE
:10538000382F317109F090E022FF04C0382F3878AF
:1053900009F090E023FF03C0827209F090E08A8157
:1053A000882389F081E0911101C080E080939A0305
:1053B00089E2911185E30E946B0E0E94320F80E01A
:1053C000DF91CF91089580919A03811104C089E201
:1053D0000E94720EF2CF85E3FBCF81E0F1CFAF9256
:1053E000BF92CF92DF92EF92FF920F931F93CF93D2
:1053F000DF937C015B01C42FD22FFC0182818823C3
:10540000F9F040939D030E94A22D90939C038093FA
:105410009B0380E28C0F883008F061C0C77081E088
:1054200001C0880FCA95EAF7DF91CF911F910F91C4
:10543000FF90EF90DF90CF90BF90AF900C943A0622
:1054400010919D03141340C080919B0390919C0385
:105450000E94CE2D6C01B701C5010E941D22C81605
:10546000D90690F5C0E2CD0F1D17B9F080E2810F8B
:10547000883040F4177081E001C0880F1A95EAF770
:105480000E944106C83048F481E09D2F977001C00A
:10549000880F9A95EAF70E943A06802F0E942E06FE
:1054A000C830E8F4D77081E001C0880FDA95EAF7D8
:1054B000DF91CF911F910F91FF90EF90DF90CF90F0
:1054C000BF90AF900C94410680E28C0F883038F486
:1054D000C77081E001C0880FCA95EAF7E9CFDF9174
:1054E000CF911F910F91FF90EF90DF90CF90BF90E1
:1054F000AF9008950F939C01CB01233F4CE53407F7
:10550000A1F190F4283DFCE53F0749F1293D4CE528
:105510003407E9F1273D3C45C1F0FC018281882335
:10552000E1F110929D0319C0253FFCE53F0719F1F9
:10553000263F4CE5340729F1243F3C4571F707E24B
:1055400025EE44EE64EF7CE505C006E221EE41EE77
:1055500067ED7CE50E94EF2980E00F91089507E256
:1055600025EE45EE68ED7CE5F5CF06E221EE40EE56
:1055700063EF7CE5EFCF06E221EE42EE65EF7CE5DE
:10558000E9CF07E225EE46EE66EF7CE5E3CF08E2E1
:1055900021E045EE69ED7CE5DDCF81E0DECFCF9304
:1055A000DF93EC018989811115C081E0898B8F819E
:1055B0000E94CB0E88850E94DF0E0E94320FEA8186
:1055C000FB816C897D89309729F0CE010696DF91A9
:1055D000CF910994DF91CF9108950F931F93CF93AB
:1055E000DF93EC018A85811132C00B811C81175534
:1055F000C80166E170E00E942235DC01AC5CBD4F61
:105600001496ED91FC911597309731F054966D9169
:105610007C91865C9D4F0995C80166E170E00E940F
:1056200022358C010C5C1D4FF80187810E94D10E40
:10563000F80180850E94E50E0E94320F18821986BB
:105640001B861E821D8210929F0310929E03DF9183
:10565000CF911F910F910895DF92EF92FF920F93D8
:105660001F93CF93DF938C01FB018281882399F0F4
:105670008091100190911101019669F0C4E3D2E08C
:10568000F12CE12CDD24D394809110019091110133
:105690008E159F0544F4DF91CF911F910F91FF90DC
:1056A000EF90DF9008958E818823C1F089859A85D7
:1056B0008017910739F480919E0390919F03801782
:1056C000910761F0DF861C870B87CE010E94CF2AED
:1056D000CE0106960E94ED2A0E94ED0E2FEFE21AEF
:1056E000F20A6696D1CFEF92FF920F931F93CF935A
:1056F000DF937C01FB018C0117550F3F110511F061
:1057000008F03FC08091100190911101801791071E
:1057100024F410931101009310012281C80166E165
:1057200070E00E942235EC01CC5CDD4F288B928129
:105730008E81992371F1FA86E9868F5F8E830E94AC
:10574000A22D9E878D870E94F00E8F830E94C80E27
:1057500088870E94DC0E9885982B9887E881F981CC
:10576000309759F02C893D89C80166E170E00E94AC
:105770002235B901865C9D4F0995F0929F03E09216
:105780009E0381E0DF91CF911F910F91FF90EF90E9
:1057900008958823B1F38989882399F3C80166E1C4
:1057A00070E00E942235865C9D4F0E94ED2AE9CF71
:1057B0008F929F92AF92BF92CF92DF92EF92FF9221
:1057C0000F931F93CF93DF93CDB7DEB728970FB614
:1057D000F894DEBF0FBECDBF8091100190911101F2
:1057E000019609F061C028960FB6F894DEBF0FBE8F
:1057F000CDBFDF91CF911F910F91FF90EF90DF9080
:10580000CF90BF90AF909F908F900895C80166E1B0
:1058100070E00E942235FC01EC5CFD4FE288F388C9
:10582000E114F10459F4D6012A2D1D922A95E9F7C5
:10583000B601818592850E941D227C01C80166E126
:1058400070E00E942235FC01EC5CFD4F86818823CC
:10585000F1F0C80166E170E00E942235FC01EC5CC9
:10586000FD4F858596850E94CE2DE816F90678F4C1
:10587000C40166E170E00E9422358C018C5C9D4F72
:105880000E94CF2AC801865C9D4F0E94ED2AB394E6
:105890000B2D10E0809110019091110148018017AB
:1058A00091070CF0B3CF9FCFB12C88E0A82ECE018A
:1058B00001966C01EDCF90935101809350010895B2
:1058C0009093A5038093A4030895E091A403F0911D
:1058D000A503309721F00190F081E02D099480E03C
:1058E0000895E091A403F091A503309721F0028080
:1058F000F381E02D09940895DC01E091A403F09177
:10590000A503309739F082E08C930480F581E02D77
:10591000CD01099408952091A2033091A303281783
:10592000390771F09093A3038093A203E091A4033D
:10593000F091A503309721F00680F781E02D0994BE
:1059400008952091A0033091A1032817390771F021
:105950009093A1038093A003E091A403F091A50389
:10596000309721F00084F185E02D09940895AC0171
:105970009C012E5F3F4F485F5F4F80E02417350743
:1059800009F40895F90191919F019923B9F38F5F6B
:10599000F5CF9C01662351F0FC013296285F3F4F02
:1059A0008191861729F0E217F307D1F780E0089577
:1059B00081E008959C01FC0132968FEF90E04191C7
:1059C000461751F08F3F19F4411101C0892F9F5F95
:1059D0009630A9F78F3F09F40895280F311D87FDF0
:1059E0003A95F901628308959C01FC013296285F83
:1059F0003F4F8191861303C0DF0111971C92E2177C
:105A0000F307B9F708950C94DA2C0C94F42CFC01EC
:105A1000329686E0DF011D928A95E9F70895089590
:105A20000C940F2D8F5F8093A6030C94102D83E0B0
:105A30008093A6030C94102D0C94122D81E080937A
:105A4000A6030C94102D0C941E2D089508950C940B
:105A5000262D089508950C94252DCF930E94292D6D
:105A60000E9459140E942A2DC0E08C2F0E948F138F
:105A7000892B31F4CF5FC530C1F780E0CF91089515
:105A800081E0FCCF08951F921FB61F9211248F93BF
:105A90009F93AF93BF938091A703811113C080910F
:105AA0003C0490913D04A0913E04B0913F04419686
:105AB000A11DB11D80933C0490933D04A0933E042E
:105AC000B0933F04BF91AF919F918F911F901FBEE4
:105AD0001F90189580914404843031F10E943B045A
